:100E20005761726E696E672054656D20536574203A
:100E3000005761726E696E67204C75782053657437
:100E400020004D6F746F725F537065656420536549
:100E50007420004175746F204D6F746F72204D6F58
:100E60006465200020202020202020202020202019
:100E700020202020004E6F772054656D703A004E80
:090E80006F77204C7578203A00D0
:100FA9000F0FFF0E20FF0E31FF0E42FF0E53FF0EF3
:100FB9006402200005012603012500012202011F08
:010FC9000027
:10094D001212071211917FB81200061212AF121176
:10095D00C41212747FE81200067F1B12130FE4F508
:10096D0037120DA9120D2A1212F18F24853D3E1258
:10097D00001A12124B8F23E52464046003020A321D
:10098D00E5226401703A7BFF7A0E79647D017F0167
:10099D001210827BFF7A0E79647D017F0212108224
:1009AD00AB0FAA10A9117D017F01121082AB12AA03
:1009BD0013A9147D017F0212108212001E752202EE
:1009CD00E5226402705F7BFF7A0E79647D017F0101
:1009DD001210827BFF7A0E79647D017F02121082E4
:1009ED007BFF7A0E79757D017F011210827BFF7A74
:1009FD000E797F7D017F02121082AF3CAE3BAD3A86
:100A0D00AC391206DEAB07AA067543037D0B7F01D9
:100A1D00121121E523FB7A007543037D0B7F021232
:100A2D0011217522017BFF7A0E79757D017F0112EF
:100A3D0010827BFF7A0E797F7D017F02121082AFCB
:100A4D003CAE3BAD3AAC391206DEAB07AA06754398
:100A5D00037D0B7F01121121E523FB7A0075430302
:0D0A6D007D0B7F021211217522010209711B
:03001B00020A7A5C
:100A7A00C0E0C0F0C083C082C0D075D000C000C042
:0D0A8A0001C002C003C004C005C006C007C3
:100A9700758B18758DFC050AE50A70020509050CAA
:100AA700E50C7002050BD39414E50B940040091272
:100AB7000F05750B00750C00C3E50A94E8E509946A
:100AC700034017E53DB40112E537700EE51F700AC4
:100AD700F509F50A7F32FE1210A5050EE50E700224
:0B0AE700050DD39414E50D9400404D64
:100AF2000508E50875F00A8485F008AF26EF3395FE
:100B0200E0FEAD087C00C3ED9FEE6480F87480982F
:100B1200500EE53EB40109E537B40104D2968017C0
:100B2200C3ED9FEE6480F8EC6480985008E51F6086
:0D0B320004D2968002C296750D00750E006B
:080B3F00E524B40303631FFF6A
:100B4700D007D006D005D004D003D002D001D00002
:0B0B5700D0D0D082D083D0F0D0E032AC
:0912D800D2A0D2A1C2A0C2A12241
:0712EA00C2A0D2A1D2A02294
:02103500AD0705
:10103700E4FB74807E00A803088006CEA2E713CEE7
:1010470013D8F8FFEDF582EF558224FF92A0D2A1C5
:06105700C2A10BBB08DC86
:01105D002270
:1010C700E4FFD2A0FED2A130A00D7480A80608804C
:0D10D70002C313D8FC4207C2A10EBE08E8F8
:0110E40022E9
:0A12BA00EF24FF92A0D2A1C2A122EE
:0B128100D2A0D2A1A2A0E433FFC2A1C2
:01128C00223F
:03000600EF601098
:0E000900007544027545C7D545FDD544FA1F64
:0300170080ED2257
:06121B00C2A58F80D2A7DE
:09122100007F027EC7DEFEDFFC47
:01122A0022A1
:0A12C400C2A612121BC2A7021221DB
:1010E500CFCDCFCECCCE12079E7C007D0A12079EB7
:0410F500ED2430FFB7
:0A10F900D2A612121BC2A702122198
:101207007F381212C47F0C1212C47F061212C47FD9
:04121700010212C4FA
:10122B00EDBF0103148002243F4480FF1212C4223D
:0A12CE00AC0312122BAF040210F95A
:061082008B408A41894207
:1010880012122BE4FDAB40AA41A9428D8275830060
:0C10980012075FFF60061210F90D80E9DE
:0110A4002229
:0C0F76007F0AEA24FFFDE434FFFC7E004B
:080F82008E448F458C468D471B
:100F8A007F017E00E4FBEBC39547E5466480F87475
:0E0F9A008098500AAC44AD4512078C0B80E8DD
:010FA8002226
:041121008A418B4232
:1011250012122BAA43EAD39400400D120F76AC415C
:08113500AD421210E51A80ED35
:01113D00228F
:100E890012122BD3EB9400EA6480948040097F2BE3
:100E99001210F98A4D8B4EC3EA64809480500E7FFC
:100EA9002D1210F9C3E49BF54EE49AF54DAA4CEACC
:100EB900D39400400D120F76AC4DAD4E1210E51AC9
:020EC90080EDBA
:010ECB002204
:040ECC008A518B526A
:100ED00012122BAA53EAD3940040297F10120F78E4
:100EE000AC51AD52CFCDCFCECCCE12079EEF540F2A
:100EF000FEC3940AEE5004243080022437FF1210FF
:040F0000F91A80D189
:010F040022CA
:040F3E008A568B57ED
:100F420012122BAA58EAD394004028EA24FFFDE4A7
:100F520034FFFC7F027E00120F82AC56AD57CFCD1C
:100F6200CFCECCCE12079EEF54012430FF1210F9DF
:030F72001A80D210
:010F75002259
:0512F100E4AF5BF55BBA
:0112F60022D5
:1011DB00E4FF20B1010F20B0027F0220B2027F0397
:0511EB0020B3027F04A7
:0111F00022DC
:100F050085595A1211DB8F59E559B40107E55A7015
:100F150003755B01E559B40207E55A7003755B0279
:100F2500E559B40307E55A7003755B03E559B40445
:080F350007E55A7003755B0427
:010F3D002291
:10123B005389F0438901E4F58AF58CC28DC28C2267
:0B129900AD07AC068C8CAF058F8A22DD
:0912E100AF8CEFFEAD8AEDFF2297
:0612F700EF24FF928C229F
:0612FD0012123B0212A4D4
:0D125A00E52E6006E4F52E7F01227F0022C4
:0D126700E52C6006E4F52C7F01227F0022BB
:03130900AF2B22E5
:03130C00AF2A22E3
:03000300020801EF
:10080100C0E0C0F0C083C082C0D075D000C000C0BD
:1008110001C002C003C004C005C006C007E52770BF
:100821000CFFFE1212997F011212F78049E527642D
:100831000170491212E18E288F29E4FFFE121299EC
:10084100D3E52994A6E528942E4010E529948EE558
:100851002894325006752702020932D3E529948C77
:10086100E52894264010E5299474E528942A500639
:10087100752C0102092A752701020932E527640254
:1008810060030209321212E18E288F29E4FFFE1261
:100891001299D3E5299414E5289402402CE5299472
:1008A100FCE52894055022E52D131313541F242F22
:1008B100F8C000E6FFE52D5407FE7401A806088084
:1008C10002C333D8FCF45F8034D3E5299426E528AC
:1008D10094064030E529940EE528940A5026E52D2A
:1008E100131313541F242FF8C000E6FFE52D5407FE
:1008F100FE7401A806088002C333D8FC4FD000F66D
:10090100052D8006752D00752701E52DC394204026
:1009110020752D00E530F4B52F0FE532F4B531091E
:10092100852F2B85312A752E01E4FF1212F77527C9
:1009310000D007D006D005D004D003D002D001D01A
:0C09410000D0D0D082D083D0F0D0E032C3
:020CA4008F407F
:100CA600C2B6C2B57F01120006E4F54174807E002B
:100CB600A841088006CEA2E713CE13D8F8FFEF5559
:100CC6004024FF92B4D2B6C2B60541E541B408DC71
:100CD6007F01120006E4F541D2B67F01120006C27A
:100CE600B630B714E47E80A841088005CEC313CE83
:100CF60013D8F94243EE42420541E541C394104000
:100D0600D77F01120006D2B5E54030E306E542FF83
:100D16007E0022E542C4F854F0C868FEE543C45498
:030D26000F48FF74
:010D290022A7
:0B12A400D288C289D2A8D2AFD2B822F3
:1011C4005389F0438901758B18758DFCC28FD28EBB
:0711D400D2ABD2AFD2BB2267
:10105E008F5C8C5D8D5E1212D87FA012103512122D
:10106E0081AF5C121035121281AF5E121035121262
:04107E00810212EAEF
:020FD9008F5F28
:100FDB001212D87FA0121035121281AF5F1210358A
:100FEB001212811212D87FA1121035121281121017
:0D0FFB00C78F607F011212BA1212EAAF60B8
:0110080022C5
:0D1274001211037FCC1211AB7F440211ABAD
:101009001211037FCC1211AB7FBE1211AB12113E2C
:101019008F3F12113EEFFEE53FFFFDAC06EC1206D5
:0B102900A5E4FBFA7980784112058AEB
:011034002299
:10110300D2B7C2B7C2AF7FE3DFFED2B77F1DDFFE28
:0D111300A2B7E433FE7FE3DFFED2AFAF06EC
:0111200022AC
:1011F100C2AFC2B77E04DEFEEF24FF92B77E16DED9
:05120100FED2B7D2AFE0
:0112060022C5
:10115B00C2AFC2B77F02DFFED2B77F02DFFEA2B7FC
:0B116B00E433FE7F16DFFED2AFAF06BC
:011176002256
:0211AB00AD078E
:1011AD00E4FC7401A804088002C333D8FC5DFF126F
:0611BD0011F10CBC08EC6E
:0111C3002209
:10113E00E4FDFC12115BEF600D7401A8040880023F
:0C114E00C333D8FC42050CBC08E9AF0517
:01115A002272
:05130300007FE3DFFEA6
:0113080022C2
:0410A500AD07AC06E1
:1010A900E4FBFAED25E0FFEC33FEC3EB9FEA9E502B
:0D10B9000CB2A51213030BBB00010A80E668
:0110C6002207
:0C128D004F5400202000484C004C4C0046
:080FCA00023300FA0235003287
:100D2A001212741210098F3C8E3B8D3A8C39AC38F2
:100D3A00E41206AAAB3CAA3BA93AA83912062740F4
:100D4A001A753D01753E017BFF7A12798D7D0F7F01
:100D5A00011210821212F18F248014E4F53DF53E3F
:100D6A00F5377BFF7A1279907D0F7F01121082D3BB
:100D7A00E5239534E4953340087BFF7A1279938012
:100D8A0016C3E5239536E495357BFF50067A12792A
:0F0D9A009680047A1279907D0F7F0212108222C8
:03130F008F3822F2
:10117700E4F5C875CCA475CDFF75CAA475CBFFC2BD
:0A118700CFD2CAD2ADD2AFC2BD2252
:0B12AF00D295C295D294D296C296222E
:01001A0022C3
:100B6200202020454E562053595354454D202020D5
:100B72000046756E6374696F6E204C6F6164696EB6
:100B8200670020202020202020202020202020203C
:100B92002020002020202057454C434F4D45212046
:100BA200202020004E6F77205761726E696E672099
:100BB20054656D70002D002B002020202020202065
:100BC2002020202020202020202000202053657477
:100BD200202053756363657373212020004E6F7765
:100BE200205761726E696E67204C757820004E6FD7
:100BF20077204D6F746F7220537065656420004ECC
:100C02006F7720204D6F746F7220204D6F646500E6
:060C1200590020004E0015
:060FD20001620001610054
:101191007BFF7A0B79627D017F011210827BFF7ADE
:0A11A1000B79737D017F02021082BA
:100DA900E4F53F7BFF7A0B79847D017F0212108283
:100DB900E4F53FE53F04FD7B297F021212CEC3749F
:100DC90010953FFD7B287F021212CE7F96120006F6
:100DD900053FE53FC3940840DA7FC81200067BFF50
:100DE9007A0B79847D017F011210827BFF7A0B795E
:100DF900957D017F011210827FB81200067BFF7A70
:100E09000B79847D017F011210827BFF7A0B798433
:070E19007D017F020210823F
:10001E00020565E5246404700302056DE524700392
:10002E000205656402703E0561D3E56164809483C8
:10003E004003E4F561E56175F003A4240FF886032F
:10004E0008E6FA08E6F97D017F01121082E5617576
:10005E00F003A42412F8860308E6FA08E6F97D01F7
:10006E007F02121082E5246401703E1561C3E561C2
:10007E00648094805003E4F561E56175F003A42477
:10008E000FF8860308E6FA08E6F97D017F011210E3
:10009E0082E56175F003A42412F8860308E6FA08D7
:1000AE00E6F97D017F02121082E5246403600302EB
:1000BE000565E56160030201DA7BFF7A0B79847DC9
:1000CE00017F011210827BFF7A0B79847D017F0202
:1000DE001210827BFF7A0B79A67D017F01121082AE
:1000EE007BFF7A0B79B77D017F021210827BFF7A3C
:1000FE000B79B97D107F02121082E538FB7A0075FC
:10010E0043027D087F02121121756201E5627003C0
:10011E000201DA1212F18F24E524B4011B1538E521
:10012E0038FB7A007543027D087F02121121E538F3
:10013E00C3940A500375380AE524B4021B0538E54A
:10014E0038FB7A007543027D087F02121121E538D3
:10015E00D3941E400375381EE524B403AFE4F56254
:10016E007BFF7A0B79BB7D017F011210827BFF7AB8
:10017E000B79BB7D017F021210827BFF7A0B79CD4A
:10018E007D017F011210827F321200067BFF7A0BF7
:10019E0079BB7D017F01121082E56175F003A42405
:1001AE000FF8860308E6FA08E6F97D017F011210C2
:1001BE0082E56175F003A42412F8860308E6FA08B6
:1001CE00E6F97D017F0212108202011AE5616401D7
:1001DE00600302033E7BFF7A0B79847D017F01125F
:1001EE0010827BFF7A0B79847D017F021210827B55
:1001FE00FF7A0B79DF7D017F011210827BFF7A0B74
:10020E0079B77D017F021210827BFF7A0B79B97D5F
:10021E00107F02121082754303AB34AA337D0A7F1E
:10022E0002121121754303AB36AA357D057F0212EA
:10023E001121756201E562700302033E1212F18F05
:10024E0024E524B40138E536153670021535C3E5BC
:10025E0036940AE53594005006753500753664D32C
:10026E00E5369534E5359533400685333585343698
:10027E00754303AB36AA357D057F02121121E524A5
:10028E00B402360534E53470020533D3942CE533CD
:10029E0094014006753300753464C3E5349536E534
:1002AE003395355006853533853634754303AB3477
:1002BE00AA337D0A7F02121121E524640360030232
:1002CE000243F5627BFF7A0B79BB7D017F01121031
:1002DE00827BFF7A0B79BB7D017F021210827BFF3E
:1002EE007A0B79CD7D017F011210827F32120006CA
:1002FE007BFF7A0B79BB7D017F01121082E5617560
:10030E00F003A4240FF8860308E6FA08E6F97D0147
:10031E007F01121082E56175F003A42412F88603A2
:10032E0008E6FA08E6F97D017F0212108202024306
:10033E00E561640260030204647BFF7A0B79847DBD
:10034E00017F011210827BFF7A0B79847D017F027F
:10035E001210827BFF7A0B79F07D017F01121082E1
:10036E007BFF7A0B79B77D017F021210827BFF7AB9
:10037E000B79B97D107F02121082E526FB3395E0D2
:10038E00FA7543027D087F02121121756201E56242
:10039E0070030204641212F18F24E524B4011F15B8
:1003AE0026E526FB3395E0FA7543027D087F02129F
:1003BE001121C3E526648094805003E4F526E524DC
:1003CE00B4021F0526E526FB3395E0FA7543027D40
:1003DE00087F02121121D3E5266480948A400375AA
:1003EE00260AE524B403A7E4F5627BFF7A0B79BBFA
:1003FE007D017F011210827BFF7A0B79BB7D017F1D
:10040E00021210827BFF7A0B79CD7D017F011210D3
:10041E00827F321200067BFF7A0B79BB7D017F0152
:10042E00121082E56175F003A4240FF8860308E626
:10043E00FA08E6F97D017F01121082E56175F0037D
:10044E00A42412F8860308E6FA08E6F97D017F0275
:10045E0012108202039CE561640360030205657B52
:10046E00FF7A0B79847D017F011210827BFF7A0B5C
:10047E0079847D017F021210827BFF7A0C79017DD7
:10048E00017F01121082756201E56270030205653B
:10049E001212F18F24E524B401227BFF7A0C79121B
:1004AE007D017F021210827FE81200067BFF7A0C1C
:1004BE0079147D017F02121082753701E524B40292
:1004CE00227BFF7A0C79167D107F021210827FE854
:1004DE001200067BFF7A0C79147D107F02121082B7
:1004EE00E4F537E524B403A1E4F5627BFF7A0B79DA
:1004FE00BB7D017F011210827BFF7A0B79BB7D01E0
:10050E007F021210827BFF7A0B79CD7D017F011263
:10051E0010827F321200067BFF7A0B79BB7D017F42
:10052E0001121082E56175F003A4240FF88603080A
:10053E00E6FA08E6F97D017F01121082E56175F099
:10054E0003A42412F8860308E6FA08E6F97D017F73
:10055E00021210820204971212F18F240200217BE4
:10056E00FF7A0B79847D017F011210827BFF7A0B5B
:09057E0079847D017F02021082E4
:0E124B007FAC120CA48F3F7F05120006AF3F50
:011259002272
:10058700020754EC5D046005E85904700302074A4A
:10059700120715580460F6EC4860F2EC7004FDFE93
:1005A700FF22C860DB2481C85009C3986002500647
:1005B7000207519850CAF582E9294B4A7005AB8268
:1005C70002074075F0007C1A7880C3EF9BEE9AED26
:1005D70099400DC3EF9BFFEE9AFEED99FDE842F0BF
:1005E700DC23ACF0D0E0FFD0E0FED0E0FDAB822012
:1005F700E7101BEB60BAEC2CFCEF33FFEE33FEED9C
:1006070033FD02072CE803F830E705C0F075F0006A
:10061700EF2FFFEE33FEED33FD40B830E7C280AA7F
:1006270074F8CC6480CCC86480C8F58204604FC37A
:10063700EB9FF5F0EA9E42F0E99D42F0E89C45F019
:10064700603C501DE5825FFFE582D313CB5BCBF4A3
:100657002B5582FB50280ABA002409B900200880CC
:100667001DE5825BFBE582D313CF5FCFF4C3132F66
:100677005582FF50090EBE00050DBD00010CC3EBEE
:100687009FF5F0EA9E42F0E99D42F0E89C45F06054
:0906970007CC4820E701B3EC2276
:1006A00075F020800E75F010800575F0087D007ED5
:1006B000007F003392D530D5031207F3EC3340109E
:1006C000EF33FFEE33FEED33FDEC33FCD5F0ED22DE
:0E06D000E5F0247EA2D513CC92E7CDCEFF221A
:1006DE00EDD2E7CD33EC3392D524814006E4FFFE14
:1006EE00FDFC22FCE4CFCECDCC24E0501174FF8073
:1006FE00EDC3CC13CCCD13CDCE13CECF13CF047010
:07070E00F030D5DE0207F315
:10071500E9D2E7C933E833F892D5EDD2E7CD33EC2A
:0707250033FC5002B2D522A3
:10072C00EC30E7100FBF000C0EBE00080DBD00042E
:10073C000BEB6014A2D5EB13FCED92E7FD2274FFDA
:10074C00FCFDFEFF22E480F8A2D574FF13FC7D8033
:03075C00E480EF47
:03000000020C18D7
:0C0C1800787FE4F6D8FD758162020C5F65
:10075F00BB010CE58229F582E5833AF583E022504F
:10076F0006E92582F8E622BBFE06E92582F8E22299
:0D077F00E58229F582E5833AF583E49322B3
:10078C00EF8DF0A4A8F0CF8CF0A428CE8DF0A42E81
:02079C00FE223B
:10079E00BC000BBE0029EF8DF084FFADF022E4CC3F
:1007AE00F875F008EF2FFFEE33FEEC33FCEE9DEC08
:1007BE00984005FCEE9DFE0FD5F0E9E4CEFD22ED4E
:1007CE00F8F5F0EE8420D21CFEADF075F008EF2F98
:1007DE00FFED33FD4007985006D5F0F222C398FD89
:0507EE000FD5F0EA2226
:0E07F300C3E49FFFE49EFEE49DFDE49CFC2217
:100C240002094DE493A3F8E493A34003F68001F290
:100C340008DFF48029E493A3F85407240CC8C333D1
:100C4400C4540F4420C8834004F456800146F6DFA0
:100C5400E4800B0102040810204080900FA9E47E78
:100C6400019360BCA3FF543F30E509541FFEE49395
:100C7400A360010ECF54C025E060A840B8E493A35C
:100C8400FAE493A3F8E493A3C8C582C8CAC583CA87
:100C9400F0A3C8C582C8CAC583CADFE9DEE780BE3F
:010FD8000018
:00000001FF
